:100000000C9483000C94B4000C94B4000C94B400D1
:100010000C94B4000C94B4000C94B4000C94B40090
:100020000C94B4000C94B4000C94B4000C94B40080
:100030000C94B4000C94B4000C94B4000C94B40070
:100040000C94B4000C94B4000C94B4000C94B40060
:100050000C94B4000C94B4000C94B4000C942402DE
:100060000C94B4000C94F8020C94CE020C94B400DE
:100070000C94B4000C94B4000C94B4000C94B40030
:100080000C94B4000C94B4000C94B4000C94B40020
:100090000C9498020C946E020C94B4000C94B4006E
:1000A0000C94B4000C94B4000C94B4000C94B40000
:1000B0000C94B4000C94B4000C94B4000C94B400F0
:1000C0000C94B4000C94B4000C94B4000C94B400E0
:1000D0000C94B4000C94B4000C94B4000C94B400D0
:1000E0000C94B4000C941A010C94CB010C940B01E9
:1000F0000C94DD000C943C010C942E030C947E01B6
:100100000C942E012E0311241FBECFEFD1E2DEBFCF
:10011000CDBF00E00CBF12E0A0E0B2E0E2E7F8E003
:1001200000E00BBF02C007900D92A832B107D9F7CB
:1001300023E0A8E2B2E001C01D92AB36B207E1F7BE
:1001400010E0C3E8D0E000E006C021970109802F4D
:10015000FE010E942A04C238D10780E00807A9F7EF
:100160000E9481030C9437040C940000FC01A089C8
:10017000B18982E08C93A485B5851C92A685B7854C
:100180008FEC8C93108EA489B58986E08C93A2891C
:10019000B3898C9180618C93A289B3898C9188609A
:1001A0008C93A289B3898C9180688C930288F3899F
:1001B000E02D80818F7D80830895CF92DF92EF9232
:1001C000FF920F931F93CF93DF936C017A018B0102
:1001D000C0E0D0E0CE15DF0581F0D8016D918D0132
:1001E000D601ED91FC910190F081E02DC6011995A9
:1001F000892B11F02196EECF7E01C701DF91CF91BF
:100200001F910F91FF90EF90DF90CF900895089588
:1002100080E090E00895FC01538D448D252F30E05F
:10022000842F90E0821B930B541710F0CF96089503
:1002300001970895FC01918D828D981761F0828D50
:10024000DF01A80FB11D5D968C91928D9F5F9F730A
:10025000928F90E008958FEF9FEF0895FC01918DAC
:10026000828D981731F0828DE80FF11D858D90E019
:1002700008958FEF9FEF0895FC01918D228D892FB6
:1002800090E0805C9F4F821B91098F73992708959E
:1002900081E392E00E943C0121E0892B09F420E0F7
:1002A000822F08958EEC92E00E943C0121E0892B80
:1002B00009F420E0822F0895FC01848DDF01A80F4E
:1002C000B11DA35ABF4F2C91848D90E001968F737E
:1002D0009927848FA689B7892C93A089B1898C919D
:1002E000837080648C93938D848D981306C00288EC
:1002F000F389E02D80818F7D80830895EF92FF92B6
:100300000F931F93CF93DF93EC0181E0888F9B8D38
:100310008C8D981305C0E889F989808185FD26C0F8
:10032000F62E0B8D10E00F5F1F4F0F731127E02E7D
:100330008C8DE8120CC00FB607FCFACFE889F9895A
:10034000808185FFF5CFCE010E945C01F1CF8B8DBE
:10035000FE01E80FF11DE35AFF4FF0829FB7F894BA
:100360000B8FEA89FB89808180620AC09FB7F8946D
:10037000EE89FF896083E889F989808183708064D0
:1003800080839FBF81E090E0DF91CF911F910F911B
:10039000FF90EF900895CF93DF93EC01888D882331
:1003A000C9F0EA89FB89808185FD05C0A889B989E2
:1003B0008C9186FD0FC00FB607FCF5CF808185FFBD
:1003C000F2CFA889B9898C9185FFEDCFCE010E942B
:1003D0005C01E7CFDF91CF91089580E090E0892B19
:1003E00021F00E945201811121C080E090E0892B10
:1003F00021F00E94480181111CC080E090E0892B0F
:1004000041F080E090E0892B21F00E9400008111F2
:1004100013C080E090E0892BA1F080E090E0892B70
:1004200081F00E94000081110AC008950E9400001E
:10043000DCCF0E940000E1CF0E940000EACF0C94C4
:10044000000008950E9432041F920F920FB60F927F
:1004500011242F933F938F939F93AF93BF938091DA
:100460002D0290912E02A0912F02B0913002309176
:100470002C0223E0230F2D3720F40196A11DB11D7E
:1004800005C026E8230F0296A11DB11D20932C0262
:1004900080932D0290932E02A0932F02B0933002EE
:1004A0008091280290912902A0912A02B0912B02FA
:1004B0000196A11DB11D8093280290932902A0935B
:1004C0002A02B0932B02BF91AF919F918F913F91E0
:1004D0002F910F900FBE0F901F9018951F920F92A3
:1004E0000FB60F9211240BB60F922F933F934F9399
:1004F0005F936F937F938F939F93AF93BF93EF938C
:10050000FF9381E392E00E945C01FF91EF91BF9124
:10051000AF919F918F917F916F915F914F913F919B
:100520002F910F900BBE0F900FBE0F901F9018953C
:100530001F920F920FB60F9211240BB60F922F93AA
:100540008F939F93EF93FF93E0914102F0914202CA
:100550008081E0914702F091480282FD12C09081B3
:1005600080914A028F5F8F7320914B02821751F066
:10057000E0914A02F0E0EF5CFD4F958F80934A02D4
:1005800001C08081FF91EF919F918F912F910F90EA
:100590000BBE0F900FBE0F901F9018951F920F92D9
:1005A0000FB60F9211240BB60F922F933F934F93D8
:1005B0005F936F937F938F939F93AF93BF93EF93CB
:1005C000FF938EEC92E00E945C01FF91EF91BF914E
:1005D000AF919F918F917F916F915F914F913F91DB
:1005E0002F910F900BBE0F900FBE0F901F9018957C
:1005F0001F920F920FB60F9211240BB60F922F93EA
:100600008F939F93EF93FF93E091DE02F091DF02CF
:100610008081E091E402F091E50282FD12C09081B8
:100620008091E7028F5F8F732091E802821751F06B
:10063000E091E702F0E0E253FD4F958F8093E702EF
:1006400001C08081FF91EF919F918F912F910F9029
:100650000BBE0F900FBE0F901F901895E1E3F2E0D4
:100660001382128248EE53E060E070E044835583C9
:100670006683778384E092E0918380832DEC30E081
:10068000358724872CEC30E03787268728EC30E04C
:10069000318B208B29EC30E0338B228B2AEC30E03D
:1006A000358B248B2EEC30E0378B268B118E128EFF
:1006B000138E148EEEECF2E0138212824483558383
:1006C000668377839183808385EC90E09587848728
:1006D00084EC90E09787868780EC90E0918B808B0C
:1006E00081EC90E0938B828B82EC90E0958B848BF5
:1006F00086EC90E0978B868B118E128E138E148E63
:100700000895789484B5826084BD84B5816084BD89
:1007100085B5826085BD85B5816085BD80916E009F
:10072000816080936E0010928100809181008260D0
:10073000809381008091810081608093810080910D
:1007400080008160809380008091B10084608093FC
:10075000B1008091B00081608093B00080919100E1
:1007600082608093910080919100816080939100DC
:10077000809190008160809390008091A1008260C0
:100780008093A1008091A10081608093A10080915D
:10079000A00081608093A0008091210182608093FD
:1007A00021018091210181608093210180912001AC
:1007B00081608093200180917A00846080937A0028
:1007C00080917A00826080937A0080917A008160C3
:1007D00080937A0080917A00806880937A001092EA
:1007E000C1008EEC92E00E94B60042E150E062E16E
:1007F00072E08EEC92E00E94DD0042E050E065E2A3
:1008000072E08EEC92E00E94DD0081E392E00E94B3
:10081000B60081E392E00E943C01892B49F081E31C
:1008200092E00E941A01682F8EEC92E00E947E01F5
:100830008EEC92E00E943C01892B49F08EEC92E014
:100840000E941A01682F81E392E00E947E010E94BB
:10085000ED01DFCFEE0FFF1F881F8BBF0790F691D2
:10086000E02D199481E090E0F8940C943704F8940A
:02087000FFCFB8
:10087200000000007E01DD000B01CB013C011A01EA
:100882002E0153494D38303020415420434D4420ED
:0808920054657374000D0A00A7
:00000001FF
